{
  "contracts/Blogs.sol": {
    "Blogs": {
      "abi": [
        {
          "inputs": [
            {
              "internalType": "uint256",
              "name": "_id",
              "type": "uint256"
            },
            {
              "internalType": "string",
              "name": "_BlogName",
              "type": "string"
            },
            {
              "internalType": "string",
              "name": "_Cateogry",
              "type": "string"
            },
            {
              "internalType": "string",
              "name": "_Location",
              "type": "string"
            },
            {
              "internalType": "string",
              "name": "_Date",
              "type": "string"
            },
            {
              "internalType": "string",
              "name": "_Blog",
              "type": "string"
            }
          ],
          "name": "AddBlogs",
          "outputs": [],
          "stateMutability": "nonpayable",
          "type": "function"
        },
        {
          "inputs": [
            {
              "internalType": "uint256",
              "name": "",
              "type": "uint256"
            }
          ],
          "name": "BlogDetails",
          "outputs": [
            {
              "internalType": "string",
              "name": "BlogName",
              "type": "string"
            },
            {
              "internalType": "string",
              "name": "Cateogry",
              "type": "string"
            },
            {
              "internalType": "string",
              "name": "Location",
              "type": "string"
            },
            {
              "internalType": "string",
              "name": "Date",
              "type": "string"
            },
            {
              "internalType": "string",
              "name": "Blog",
              "type": "string"
            }
          ],
          "stateMutability": "view",
          "type": "function"
        }
      ],
      "evm": {
        "bytecode": {
          "linkReferences": {},
          "object": "6080604052348015600f57600080fd5b50610afa8061001f6000396000f3fe608060405234801561001057600080fd5b50600436106100365760003560e01c80630f7d5c801461003b5780638773e61f14610057575b600080fd5b610055600480360381019061005091906105ab565b61008b565b005b610071600480360381019061006c91906106c4565b61013d565b604051610082959493929190610770565b60405180910390f35b6040518060a001604052808681526020018581526020018481526020018381526020018281525060008088815260200190815260200160002060008201518160000190816100d991906109f2565b5060208201518160010190816100ef91906109f2565b50604082015181600201908161010591906109f2565b50606082015181600301908161011b91906109f2565b50608082015181600401908161013191906109f2565b50905050505050505050565b600060205280600052604060002060009150905080600001805461016090610815565b80601f016020809104026020016040519081016040528092919081815260200182805461018c90610815565b80156101d95780601f106101ae576101008083540402835291602001916101d9565b820191906000526020600020905b8154815290600101906020018083116101bc57829003601f168201915b5050505050908060010180546101ee90610815565b80601f016020809104026020016040519081016040528092919081815260200182805461021a90610815565b80156102675780601f1061023c57610100808354040283529160200191610267565b820191906000526020600020905b81548152906001019060200180831161024a57829003601f168201915b50505050509080600201805461027c90610815565b80601f01602080910402602001604051908101604052809291908181526020018280546102a890610815565b80156102f55780601f106102ca576101008083540402835291602001916102f5565b820191906000526020600020905b8154815290600101906020018083116102d857829003601f168201915b50505050509080600301805461030a90610815565b80601f016020809104026020016040519081016040528092919081815260200182805461033690610815565b80156103835780601f1061035857610100808354040283529160200191610383565b820191906000526020600020905b81548152906001019060200180831161036657829003601f168201915b50505050509080600401805461039890610815565b80601f01602080910402602001604051908101604052809291908181526020018280546103c490610815565b80156104115780601f106103e657610100808354040283529160200191610411565b820191906000526020600020905b8154815290600101906020018083116103f457829003601f168201915b5050505050905085565b6000604051905090565b600080fd5b600080fd5b6000819050919050565b6104428161042f565b811461044d57600080fd5b50565b60008135905061045f81610439565b92915050565b600080fd5b600080fd5b6000601f19601f8301169050919050565b7f4e487b7100000000000000000000000000000000000000000000000000000000600052604160045260246000fd5b6104b88261046f565b810181811067ffffffffffffffff821117156104d7576104d6610480565b5b80604052505050565b60006104ea61041b565b90506104f682826104af565b919050565b600067ffffffffffffffff82111561051657610515610480565b5b61051f8261046f565b9050602081019050919050565b82818337600083830152505050565b600061054e610549846104fb565b6104e0565b90508281526020810184848401111561056a5761056961046a565b5b61057584828561052c565b509392505050565b600082601f83011261059257610591610465565b5b81356105a284826020860161053b565b91505092915050565b60008060008060008060c087890312156105c8576105c7610425565b5b60006105d689828a01610450565b965050602087013567ffffffffffffffff8111156105f7576105f661042a565b5b61060389828a0161057d565b955050604087013567ffffffffffffffff8111156106245761062361042a565b5b61063089828a0161057d565b945050606087013567ffffffffffffffff8111156106515761065061042a565b5b61065d89828a0161057d565b935050608087013567ffffffffffffffff81111561067e5761067d61042a565b5b61068a89828a0161057d565b92505060a087013567ffffffffffffffff8111156106ab576106aa61042a565b5b6106b789828a0161057d565b9150509295509295509295565b6000602082840312156106da576106d9610425565b5b60006106e884828501610450565b91505092915050565b600081519050919050565b600082825260208201905092915050565b60005b8381101561072b578082015181840152602081019050610710565b60008484015250505050565b6000610742826106f1565b61074c81856106fc565b935061075c81856020860161070d565b6107658161046f565b840191505092915050565b600060a082019050818103600083015261078a8188610737565b9050818103602083015261079e8187610737565b905081810360408301526107b28186610737565b905081810360608301526107c68185610737565b905081810360808301526107da8184610737565b90509695505050505050565b7f4e487b7100000000000000000000000000000000000000000000000000000000600052602260045260246000fd5b6000600282049050600182168061082d57607f821691505b6020821081036108405761083f6107e6565b5b50919050565b60008190508160005260206000209050919050565b60006020601f8301049050919050565b600082821b905092915050565b6000600883026108a87fffffffffffffffffffffffffffffffffffffffffffffffffffffffffffffffff8261086b565b6108b2868361086b565b95508019841693508086168417925050509392505050565b6000819050919050565b60006108ef6108ea6108e58461042f565b6108ca565b61042f565b9050919050565b6000819050919050565b610909836108d4565b61091d610915826108f6565b848454610878565b825550505050565b600090565b610932610925565b61093d818484610900565b505050565b5b818110156109615761095660008261092a565b600181019050610943565b5050565b601f8211156109a65761097781610846565b6109808461085b565b8101602085101561098f578190505b6109a361099b8561085b565b830182610942565b50505b505050565b600082821c905092915050565b60006109c9600019846008026109ab565b1980831691505092915050565b60006109e283836109b8565b9150826002028217905092915050565b6109fb826106f1565b67ffffffffffffffff811115610a1457610a13610480565b5b610a1e8254610815565b610a29828285610965565b600060209050601f831160018114610a5c5760008415610a4a578287015190505b610a5485826109d6565b865550610abc565b601f198416610a6a86610846565b60005b82811015610a9257848901518255600182019150602085019450602081019050610a6d565b86831015610aaf5784890151610aab601f8916826109b8565b8355505b6001600288020188555050505b50505050505056fea26469706673582212205cc9530a7390ed05088fc8f598c92b83fa83774c6939d91eef34d8f912634d6b64736f6c634300081c0033",
          "opcodes": "PUSH1 0x80 PUSH1 0x40 MSTORE CALLVALUE DUP1 ISZERO PUSH1 0xF JUMPI PUSH1 0x0 DUP1 REVERT JUMPDEST POP PUSH2 0xAFA DUP1 PUSH2 0x1F PUSH1 0x0 CODECOPY PUSH1 0x0 RETURN INVALID PUSH1 0x80 PUSH1 0x40 MSTORE CALLVALUE DUP1 ISZERO PUSH2 0x10 JUMPI PUSH1 0x0 DUP1 REVERT JUMPDEST POP PUSH1 0x4 CALLDATASIZE LT PUSH2 0x36 JUMPI PUSH1 0x0 CALLDATALOAD PUSH1 0xE0 SHR DUP1 PUSH4 0xF7D5C80 EQ PUSH2 0x3B JUMPI DUP1 PUSH4 0x8773E61F EQ PUSH2 0x57 JUMPI JUMPDEST PUSH1 0x0 DUP1 REVERT JUMPDEST PUSH2 0x55 PUSH1 0x4 DUP1 CALLDATASIZE SUB DUP2 ADD SWAP1 PUSH2 0x50 SWAP2 SWAP1 PUSH2 0x5AB JUMP JUMPDEST PUSH2 0x8B JUMP JUMPDEST STOP JUMPDEST PUSH2 0x71 PUSH1 0x4 DUP1 CALLDATASIZE SUB DUP2 ADD SWAP1 PUSH2 0x6C SWAP2 SWAP1 PUSH2 0x6C4 JUMP JUMPDEST PUSH2 0x13D JUMP JUMPDEST PUSH1 0x40 MLOAD PUSH2 0x82 SWAP6 SWAP5 SWAP4 SWAP3 SWAP2 SWAP1 PUSH2 0x770 JUMP JUMPDEST PUSH1 0x40 MLOAD DUP1 SWAP2 SUB SWAP1 RETURN JUMPDEST PUSH1 0x40 MLOAD DUP1 PUSH1 0xA0 ADD PUSH1 0x40 MSTORE DUP1 DUP7 DUP2 MSTORE PUSH1 0x20 ADD DUP6 DUP2 MSTORE PUSH1 0x20 ADD DUP5 DUP2 MSTORE PUSH1 0x20 ADD DUP4 DUP2 MSTORE PUSH1 0x20 ADD DUP3 DUP2 MSTORE POP PUSH1 0x0 DUP1 DUP9 DUP2 MSTORE PUSH1 0x20 ADD SWAP1 DUP2 MSTORE PUSH1 0x20 ADD PUSH1 0x0 KECCAK256 PUSH1 0x0 DUP3 ADD MLOAD DUP2 PUSH1 0x0 ADD SWAP1 DUP2 PUSH2 0xD9 SWAP2 SWAP1 PUSH2 0x9F2 JUMP JUMPDEST POP PUSH1 0x20 DUP3 ADD MLOAD DUP2 PUSH1 0x1 ADD SWAP1 DUP2 PUSH2 0xEF SWAP2 SWAP1 PUSH2 0x9F2 JUMP JUMPDEST POP PUSH1 0x40 DUP3 ADD MLOAD DUP2 PUSH1 0x2 ADD SWAP1 DUP2 PUSH2 0x105 SWAP2 SWAP1 PUSH2 0x9F2 JUMP JUMPDEST POP PUSH1 0x60 DUP3 ADD MLOAD DUP2 PUSH1 0x3 ADD SWAP1 DUP2 PUSH2 0x11B SWAP2 SWAP1 PUSH2 0x9F2 JUMP JUMPDEST POP PUSH1 0x80 DUP3 ADD MLOAD DUP2 PUSH1 0x4 ADD SWAP1 DUP2 PUSH2 0x131 SWAP2 SWAP1 PUSH2 0x9F2 JUMP JUMPDEST POP SWAP1 POP POP POP POP POP POP POP POP JUMP JUMPDEST PUSH1 0x0 PUSH1 0x20 MSTORE DUP1 PUSH1 0x0 MSTORE PUSH1 0x40 PUSH1 0x0 KECCAK256 PUSH1 0x0 SWAP2 POP SWAP1 POP DUP1 PUSH1 0x0 ADD DUP1 SLOAD PUSH2 0x160 SWAP1 PUSH2 0x815 JUMP JUMPDEST DUP1 PUSH1 0x1F ADD PUSH1 0x20 DUP1 SWAP2 DIV MUL PUSH1 0x20 ADD PUSH1 0x40 MLOAD SWAP1 DUP2 ADD PUSH1 0x40 MSTORE DUP1 SWAP3 SWAP2 SWAP1 DUP2 DUP2 MSTORE PUSH1 0x20 ADD DUP3 DUP1 SLOAD PUSH2 0x18C SWAP1 PUSH2 0x815 JUMP JUMPDEST DUP1 ISZERO PUSH2 0x1D9 JUMPI DUP1 PUSH1 0x1F LT PUSH2 0x1AE JUMPI PUSH2 0x100 DUP1 DUP4 SLOAD DIV MUL DUP4 MSTORE SWAP2 PUSH1 0x20 ADD SWAP2 PUSH2 0x1D9 JUMP JUMPDEST DUP3 ADD SWAP2 SWAP1 PUSH1 0x0 MSTORE PUSH1 0x20 PUSH1 0x0 KECCAK256 SWAP1 JUMPDEST DUP2 SLOAD DUP2 MSTORE SWAP1 PUSH1 0x1 ADD SWAP1 PUSH1 0x20 ADD DUP1 DUP4 GT PUSH2 0x1BC JUMPI DUP3 SWAP1 SUB PUSH1 0x1F AND DUP3 ADD SWAP2 JUMPDEST POP POP POP POP POP SWAP1 DUP1 PUSH1 0x1 ADD DUP1 SLOAD PUSH2 0x1EE SWAP1 PUSH2 0x815 JUMP JUMPDEST DUP1 PUSH1 0x1F ADD PUSH1 0x20 DUP1 SWAP2 DIV MUL PUSH1 0x20 ADD PUSH1 0x40 MLOAD SWAP1 DUP2 ADD PUSH1 0x40 MSTORE DUP1 SWAP3 SWAP2 SWAP1 DUP2 DUP2 MSTORE PUSH1 0x20 ADD DUP3 DUP1 SLOAD PUSH2 0x21A SWAP1 PUSH2 0x815 JUMP JUMPDEST DUP1 ISZERO PUSH2 0x267 JUMPI DUP1 PUSH1 0x1F LT PUSH2 0x23C JUMPI PUSH2 0x100 DUP1 DUP4 SLOAD DIV MUL DUP4 MSTORE SWAP2 PUSH1 0x20 ADD SWAP2 PUSH2 0x267 JUMP JUMPDEST DUP3 ADD SWAP2 SWAP1 PUSH1 0x0 MSTORE PUSH1 0x20 PUSH1 0x0 KECCAK256 SWAP1 JUMPDEST DUP2 SLOAD DUP2 MSTORE SWAP1 PUSH1 0x1 ADD SWAP1 PUSH1 0x20 ADD DUP1 DUP4 GT PUSH2 0x24A JUMPI DUP3 SWAP1 SUB PUSH1 0x1F AND DUP3 ADD SWAP2 JUMPDEST POP POP POP POP POP SWAP1 DUP1 PUSH1 0x2 ADD DUP1 SLOAD PUSH2 0x27C SWAP1 PUSH2 0x815 JUMP JUMPDEST DUP1 PUSH1 0x1F ADD PUSH1 0x20 DUP1 SWAP2 DIV MUL PUSH1 0x20 ADD PUSH1 0x40 MLOAD SWAP1 DUP2 ADD PUSH1 0x40 MSTORE DUP1 SWAP3 SWAP2 SWAP1 DUP2 DUP2 MSTORE PUSH1 0x20 ADD DUP3 DUP1 SLOAD PUSH2 0x2A8 SWAP1 PUSH2 0x815 JUMP JUMPDEST DUP1 ISZERO PUSH2 0x2F5 JUMPI DUP1 PUSH1 0x1F LT PUSH2 0x2CA JUMPI PUSH2 0x100 DUP1 DUP4 SLOAD DIV MUL DUP4 MSTORE SWAP2 PUSH1 0x20 ADD SWAP2 PUSH2 0x2F5 JUMP JUMPDEST DUP3 ADD SWAP2 SWAP1 PUSH1 0x0 MSTORE PUSH1 0x20 PUSH1 0x0 KECCAK256 SWAP1 JUMPDEST DUP2 SLOAD DUP2 MSTORE SWAP1 PUSH1 0x1 ADD SWAP1 PUSH1 0x20 ADD DUP1 DUP4 GT PUSH2 0x2D8 JUMPI DUP3 SWAP1 SUB PUSH1 0x1F AND DUP3 ADD SWAP2 JUMPDEST POP POP POP POP POP SWAP1 DUP1 PUSH1 0x3 ADD DUP1 SLOAD PUSH2 0x30A SWAP1 PUSH2 0x815 JUMP JUMPDEST DUP1 PUSH1 0x1F ADD PUSH1 0x20 DUP1 SWAP2 DIV MUL PUSH1 0x20 ADD PUSH1 0x40 MLOAD SWAP1 DUP2 ADD PUSH1 0x40 MSTORE DUP1 SWAP3 SWAP2 SWAP1 DUP2 DUP2 MSTORE PUSH1 0x20 ADD DUP3 DUP1 SLOAD PUSH2 0x336 SWAP1 PUSH2 0x815 JUMP JUMPDEST DUP1 ISZERO PUSH2 0x383 JUMPI DUP1 PUSH1 0x1F LT PUSH2 0x358 JUMPI PUSH2 0x100 DUP1 DUP4 SLOAD DIV MUL DUP4 MSTORE SWAP2 PUSH1 0x20 ADD SWAP2 PUSH2 0x383 JUMP JUMPDEST DUP3 ADD SWAP2 SWAP1 PUSH1 0x0 MSTORE PUSH1 0x20 PUSH1 0x0 KECCAK256 SWAP1 JUMPDEST DUP2 SLOAD DUP2 MSTORE SWAP1 PUSH1 0x1 ADD SWAP1 PUSH1 0x20 ADD DUP1 DUP4 GT PUSH2 0x366 JUMPI DUP3 SWAP1 SUB PUSH1 0x1F AND DUP3 ADD SWAP2 JUMPDEST POP POP POP POP POP SWAP1 DUP1 PUSH1 0x4 ADD DUP1 SLOAD PUSH2 0x398 SWAP1 PUSH2 0x815 JUMP JUMPDEST DUP1 PUSH1 0x1F ADD PUSH1 0x20 DUP1 SWAP2 DIV MUL PUSH1 0x20 ADD PUSH1 0x40 MLOAD SWAP1 DUP2 ADD PUSH1 0x40 MSTORE DUP1 SWAP3 SWAP2 SWAP1 DUP2 DUP2 MSTORE PUSH1 0x20 ADD DUP3 DUP1 SLOAD PUSH2 0x3C4 SWAP1 PUSH2 0x815 JUMP JUMPDEST DUP1 ISZERO PUSH2 0x411 JUMPI DUP1 PUSH1 0x1F LT PUSH2 0x3E6 JUMPI PUSH2 0x100 DUP1 DUP4 SLOAD DIV MUL DUP4 MSTORE SWAP2 PUSH1 0x20 ADD SWAP2 PUSH2 0x411 JUMP JUMPDEST DUP3 ADD SWAP2 SWAP1 PUSH1 0x0 MSTORE PUSH1 0x20 PUSH1 0x0 KECCAK256 SWAP1 JUMPDEST DUP2 SLOAD DUP2 MSTORE SWAP1 PUSH1 0x1 ADD SWAP1 PUSH1 0x20 ADD DUP1 DUP4 GT PUSH2 0x3F4 JUMPI DUP3 SWAP1 SUB PUSH1 0x1F AND DUP3 ADD SWAP2 JUMPDEST POP POP POP POP POP SWAP1 POP DUP6 JUMP JUMPDEST PUSH1 0x0 PUSH1 0x40 MLOAD SWAP1 POP SWAP1 JUMP JUMPDEST PUSH1 0x0 DUP1 REVERT JUMPDEST PUSH1 0x0 DUP1 REVERT JUMPDEST PUSH1 0x0 DUP2 SWAP1 POP SWAP2 SWAP1 POP JUMP JUMPDEST PUSH2 0x442 DUP2 PUSH2 0x42F JUMP JUMPDEST DUP2 EQ PUSH2 0x44D JUMPI PUSH1 0x0 DUP1 REVERT JUMPDEST POP JUMP JUMPDEST PUSH1 0x0 DUP2 CALLDATALOAD SWAP1 POP PUSH2 0x45F DUP2 PUSH2 0x439 JUMP JUMPDEST SWAP3 SWAP2 POP POP JUMP JUMPDEST PUSH1 0x0 DUP1 REVERT JUMPDEST PUSH1 0x0 DUP1 REVERT JUMPDEST PUSH1 0x0 PUSH1 0x1F NOT PUSH1 0x1F DUP4 ADD AND SWAP1 POP SWAP2 SWAP1 POP JUMP JUMPDEST PUSH32 0x4E487B7100000000000000000000000000000000000000000000000000000000 PUSH1 0x0 MSTORE PUSH1 0x41 PUSH1 0x4 MSTORE PUSH1 0x24 PUSH1 0x0 REVERT JUMPDEST PUSH2 0x4B8 DUP3 PUSH2 0x46F JUMP JUMPDEST DUP2 ADD DUP2 DUP2 LT PUSH8 0xFFFFFFFFFFFFFFFF DUP3 GT OR ISZERO PUSH2 0x4D7 JUMPI PUSH2 0x4D6 PUSH2 0x480 JUMP JUMPDEST JUMPDEST DUP1 PUSH1 0x40 MSTORE POP POP POP JUMP JUMPDEST PUSH1 0x0 PUSH2 0x4EA PUSH2 0x41B JUMP JUMPDEST SWAP1 POP PUSH2 0x4F6 DUP3 DUP3 PUSH2 0x4AF JUMP JUMPDEST SWAP2 SWAP1 POP JUMP JUMPDEST PUSH1 0x0 PUSH8 0xFFFFFFFFFFFFFFFF DUP3 GT ISZERO PUSH2 0x516 JUMPI PUSH2 0x515 PUSH2 0x480 JUMP JUMPDEST JUMPDEST PUSH2 0x51F DUP3 PUSH2 0x46F JUMP JUMPDEST SWAP1 POP PUSH1 0x20 DUP2 ADD SWAP1 POP SWAP2 SWAP1 POP JUMP JUMPDEST DUP3 DUP2 DUP4 CALLDATACOPY PUSH1 0x0 DUP4 DUP4 ADD MSTORE POP POP POP JUMP JUMPDEST PUSH1 0x0 PUSH2 0x54E PUSH2 0x549 DUP5 PUSH2 0x4FB JUMP JUMPDEST PUSH2 0x4E0 JUMP JUMPDEST SWAP1 POP DUP3 DUP2 MSTORE PUSH1 0x20 DUP2 ADD DUP5 DUP5 DUP5 ADD GT ISZERO PUSH2 0x56A JUMPI PUSH2 0x569 PUSH2 0x46A JUMP JUMPDEST JUMPDEST PUSH2 0x575 DUP5 DUP3 DUP6 PUSH2 0x52C JUMP JUMPDEST POP SWAP4 SWAP3 POP POP POP JUMP JUMPDEST PUSH1 0x0 DUP3 PUSH1 0x1F DUP4 ADD SLT PUSH2 0x592 JUMPI PUSH2 0x591 PUSH2 0x465 JUMP JUMPDEST JUMPDEST DUP2 CALLDATALOAD PUSH2 0x5A2 DUP5 DUP3 PUSH1 0x20 DUP7 ADD PUSH2 0x53B JUMP JUMPDEST SWAP2 POP POP SWAP3 SWAP2 POP POP JUMP JUMPDEST PUSH1 0x0 DUP1 PUSH1 0x0 DUP1 PUSH1 0x0 DUP1 PUSH1 0xC0 DUP8 DUP10 SUB SLT ISZERO PUSH2 0x5C8 JUMPI PUSH2 0x5C7 PUSH2 0x425 JUMP JUMPDEST JUMPDEST PUSH1 0x0 PUSH2 0x5D6 DUP10 DUP3 DUP11 ADD PUSH2 0x450 JUMP JUMPDEST SWAP7 POP POP PUSH1 0x20 DUP8 ADD CALLDATALOAD PUSH8 0xFFFFFFFFFFFFFFFF DUP2 GT ISZERO PUSH2 0x5F7 JUMPI PUSH2 0x5F6 PUSH2 0x42A JUMP JUMPDEST JUMPDEST PUSH2 0x603 DUP10 DUP3 DUP11 ADD PUSH2 0x57D JUMP JUMPDEST SWAP6 POP POP PUSH1 0x40 DUP8 ADD CALLDATALOAD PUSH8 0xFFFFFFFFFFFFFFFF DUP2 GT ISZERO PUSH2 0x624 JUMPI PUSH2 0x623 PUSH2 0x42A JUMP JUMPDEST JUMPDEST PUSH2 0x630 DUP10 DUP3 DUP11 ADD PUSH2 0x57D JUMP JUMPDEST SWAP5 POP POP PUSH1 0x60 DUP8 ADD CALLDATALOAD PUSH8 0xFFFFFFFFFFFFFFFF DUP2 GT ISZERO PUSH2 0x651 JUMPI PUSH2 0x650 PUSH2 0x42A JUMP JUMPDEST JUMPDEST PUSH2 0x65D DUP10 DUP3 DUP11 ADD PUSH2 0x57D JUMP JUMPDEST SWAP4 POP POP PUSH1 0x80 DUP8 ADD CALLDATALOAD PUSH8 0xFFFFFFFFFFFFFFFF DUP2 GT ISZERO PUSH2 0x67E JUMPI PUSH2 0x67D PUSH2 0x42A JUMP JUMPDEST JUMPDEST PUSH2 0x68A DUP10 DUP3 DUP11 ADD PUSH2 0x57D JUMP JUMPDEST SWAP3 POP POP PUSH1 0xA0 DUP8 ADD CALLDATALOAD PUSH8 0xFFFFFFFFFFFFFFFF DUP2 GT ISZERO PUSH2 0x6AB JUMPI PUSH2 0x6AA PUSH2 0x42A JUMP JUMPDEST JUMPDEST PUSH2 0x6B7 DUP10 DUP3 DUP11 ADD PUSH2 0x57D JUMP JUMPDEST SWAP2 POP POP SWAP3 SWAP6 POP SWAP3 SWAP6 POP SWAP3 SWAP6 JUMP JUMPDEST PUSH1 0x0 PUSH1 0x20 DUP3 DUP5 SUB SLT ISZERO PUSH2 0x6DA JUMPI PUSH2 0x6D9 PUSH2 0x425 JUMP JUMPDEST JUMPDEST PUSH1 0x0 PUSH2 0x6E8 DUP5 DUP3 DUP6 ADD PUSH2 0x450 JUMP JUMPDEST SWAP2 POP POP SWAP3 SWAP2 POP POP JUMP JUMPDEST PUSH1 0x0 DUP2 MLOAD SWAP1 POP SWAP2 SWAP1 POP JUMP JUMPDEST PUSH1 0x0 DUP3 DUP3 MSTORE PUSH1 0x20 DUP3 ADD SWAP1 POP SWAP3 SWAP2 POP POP JUMP JUMPDEST PUSH1 0x0 JUMPDEST DUP4 DUP2 LT ISZERO PUSH2 0x72B JUMPI DUP1 DUP3 ADD MLOAD DUP2 DUP5 ADD MSTORE PUSH1 0x20 DUP2 ADD SWAP1 POP PUSH2 0x710 JUMP JUMPDEST PUSH1 0x0 DUP5 DUP5 ADD MSTORE POP POP POP POP JUMP JUMPDEST PUSH1 0x0 PUSH2 0x742 DUP3 PUSH2 0x6F1 JUMP JUMPDEST PUSH2 0x74C DUP2 DUP6 PUSH2 0x6FC JUMP JUMPDEST SWAP4 POP PUSH2 0x75C DUP2 DUP6 PUSH1 0x20 DUP7 ADD PUSH2 0x70D JUMP JUMPDEST PUSH2 0x765 DUP2 PUSH2 0x46F JUMP JUMPDEST DUP5 ADD SWAP2 POP POP SWAP3 SWAP2 POP POP JUMP JUMPDEST PUSH1 0x0 PUSH1 0xA0 DUP3 ADD SWAP1 POP DUP2 DUP2 SUB PUSH1 0x0 DUP4 ADD MSTORE PUSH2 0x78A DUP2 DUP9 PUSH2 0x737 JUMP JUMPDEST SWAP1 POP DUP2 DUP2 SUB PUSH1 0x20 DUP4 ADD MSTORE PUSH2 0x79E DUP2 DUP8 PUSH2 0x737 JUMP JUMPDEST SWAP1 POP DUP2 DUP2 SUB PUSH1 0x40 DUP4 ADD MSTORE PUSH2 0x7B2 DUP2 DUP7 PUSH2 0x737 JUMP JUMPDEST SWAP1 POP DUP2 DUP2 SUB PUSH1 0x60 DUP4 ADD MSTORE PUSH2 0x7C6 DUP2 DUP6 PUSH2 0x737 JUMP JUMPDEST SWAP1 POP DUP2 DUP2 SUB PUSH1 0x80 DUP4 ADD MSTORE PUSH2 0x7DA DUP2 DUP5 PUSH2 0x737 JUMP JUMPDEST SWAP1 POP SWAP7 SWAP6 POP POP POP POP POP POP JUMP JUMPDEST PUSH32 0x4E487B7100000000000000000000000000000000000000000000000000000000 PUSH1 0x0 MSTORE PUSH1 0x22 PUSH1 0x4 MSTORE PUSH1 0x24 PUSH1 0x0 REVERT JUMPDEST PUSH1 0x0 PUSH1 0x2 DUP3 DIV SWAP1 POP PUSH1 0x1 DUP3 AND DUP1 PUSH2 0x82D JUMPI PUSH1 0x7F DUP3 AND SWAP2 POP JUMPDEST PUSH1 0x20 DUP3 LT DUP2 SUB PUSH2 0x840 JUMPI PUSH2 0x83F PUSH2 0x7E6 JUMP JUMPDEST JUMPDEST POP SWAP2 SWAP1 POP JUMP JUMPDEST PUSH1 0x0 DUP2 SWAP1 POP DUP2 PUSH1 0x0 MSTORE PUSH1 0x20 PUSH1 0x0 KECCAK256 SWAP1 POP SWAP2 SWAP1 POP JUMP JUMPDEST PUSH1 0x0 PUSH1 0x20 PUSH1 0x1F DUP4 ADD DIV SWAP1 POP SWAP2 SWAP1 POP JUMP JUMPDEST PUSH1 0x0 DUP3 DUP3 SHL SWAP1 POP SWAP3 SWAP2 POP POP JUMP JUMPDEST PUSH1 0x0 PUSH1 0x8 DUP4 MUL PUSH2 0x8A8 PUSH32 0xFFFFFFFFFFFFFFFFFFFFFFFFFFFFFFFFFFFFFFFFFFFFFFFFFFFFFFFFFFFFFFFF DUP3 PUSH2 0x86B JUMP JUMPDEST PUSH2 0x8B2 DUP7 DUP4 PUSH2 0x86B JUMP JUMPDEST SWAP6 POP DUP1 NOT DUP5 AND SWAP4 POP DUP1 DUP7 AND DUP5 OR SWAP3 POP POP POP SWAP4 SWAP3 POP POP POP JUMP JUMPDEST PUSH1 0x0 DUP2 SWAP1 POP SWAP2 SWAP1 POP JUMP JUMPDEST PUSH1 0x0 PUSH2 0x8EF PUSH2 0x8EA PUSH2 0x8E5 DUP5 PUSH2 0x42F JUMP JUMPDEST PUSH2 0x8CA JUMP JUMPDEST PUSH2 0x42F JUMP JUMPDEST SWAP1 POP SWAP2 SWAP1 POP JUMP JUMPDEST PUSH1 0x0 DUP2 SWAP1 POP SWAP2 SWAP1 POP JUMP JUMPDEST PUSH2 0x909 DUP4 PUSH2 0x8D4 JUMP JUMPDEST PUSH2 0x91D PUSH2 0x915 DUP3 PUSH2 0x8F6 JUMP JUMPDEST DUP5 DUP5 SLOAD PUSH2 0x878 JUMP JUMPDEST DUP3 SSTORE POP POP POP POP JUMP JUMPDEST PUSH1 0x0 SWAP1 JUMP JUMPDEST PUSH2 0x932 PUSH2 0x925 JUMP JUMPDEST PUSH2 0x93D DUP2 DUP5 DUP5 PUSH2 0x900 JUMP JUMPDEST POP POP POP JUMP JUMPDEST JUMPDEST DUP2 DUP2 LT ISZERO PUSH2 0x961 JUMPI PUSH2 0x956 PUSH1 0x0 DUP3 PUSH2 0x92A JUMP JUMPDEST PUSH1 0x1 DUP2 ADD SWAP1 POP PUSH2 0x943 JUMP JUMPDEST POP POP JUMP JUMPDEST PUSH1 0x1F DUP3 GT ISZERO PUSH2 0x9A6 JUMPI PUSH2 0x977 DUP2 PUSH2 0x846 JUMP JUMPDEST PUSH2 0x980 DUP5 PUSH2 0x85B JUMP JUMPDEST DUP2 ADD PUSH1 0x20 DUP6 LT ISZERO PUSH2 0x98F JUMPI DUP2 SWAP1 POP JUMPDEST PUSH2 0x9A3 PUSH2 0x99B DUP6 PUSH2 0x85B JUMP JUMPDEST DUP4 ADD DUP3 PUSH2 0x942 JUMP JUMPDEST POP POP JUMPDEST POP POP POP JUMP JUMPDEST PUSH1 0x0 DUP3 DUP3 SHR SWAP1 POP SWAP3 SWAP2 POP POP JUMP JUMPDEST PUSH1 0x0 PUSH2 0x9C9 PUSH1 0x0 NOT DUP5 PUSH1 0x8 MUL PUSH2 0x9AB JUMP JUMPDEST NOT DUP1 DUP4 AND SWAP2 POP POP SWAP3 SWAP2 POP POP JUMP JUMPDEST PUSH1 0x0 PUSH2 0x9E2 DUP4 DUP4 PUSH2 0x9B8 JUMP JUMPDEST SWAP2 POP DUP3 PUSH1 0x2 MUL DUP3 OR SWAP1 POP SWAP3 SWAP2 POP POP JUMP JUMPDEST PUSH2 0x9FB DUP3 PUSH2 0x6F1 JUMP JUMPDEST PUSH8 0xFFFFFFFFFFFFFFFF DUP2 GT ISZERO PUSH2 0xA14 JUMPI PUSH2 0xA13 PUSH2 0x480 JUMP JUMPDEST JUMPDEST PUSH2 0xA1E DUP3 SLOAD PUSH2 0x815 JUMP JUMPDEST PUSH2 0xA29 DUP3 DUP3 DUP6 PUSH2 0x965 JUMP JUMPDEST PUSH1 0x0 PUSH1 0x20 SWAP1 POP PUSH1 0x1F DUP4 GT PUSH1 0x1 DUP2 EQ PUSH2 0xA5C JUMPI PUSH1 0x0 DUP5 ISZERO PUSH2 0xA4A JUMPI DUP3 DUP8 ADD MLOAD SWAP1 POP JUMPDEST PUSH2 0xA54 DUP6 DUP3 PUSH2 0x9D6 JUMP JUMPDEST DUP7 SSTORE POP PUSH2 0xABC JUMP JUMPDEST PUSH1 0x1F NOT DUP5 AND PUSH2 0xA6A DUP7 PUSH2 0x846 JUMP JUMPDEST PUSH1 0x0 JUMPDEST DUP3 DUP2 LT ISZERO PUSH2 0xA92 JUMPI DUP5 DUP10 ADD MLOAD DUP3 SSTORE PUSH1 0x1 DUP3 ADD SWAP2 POP PUSH1 0x20 DUP6 ADD SWAP5 POP PUSH1 0x20 DUP2 ADD SWAP1 POP PUSH2 0xA6D JUMP JUMPDEST DUP7 DUP4 LT ISZERO PUSH2 0xAAF JUMPI DUP5 DUP10 ADD MLOAD PUSH2 0xAAB PUSH1 0x1F DUP10 AND DUP3 PUSH2 0x9B8 JUMP JUMPDEST DUP4 SSTORE POP JUMPDEST PUSH1 0x1 PUSH1 0x2 DUP9 MUL ADD DUP9 SSTORE POP POP POP JUMPDEST POP POP POP POP POP POP JUMP INVALID LOG2 PUSH5 0x6970667358 0x22 SLT KECCAK256 TLOAD 0xC9 MSTORE8 EXP PUSH20 0x90ED05088FC8F598C92B83FA83774C6939D91EEF CALLVALUE 0xD8 0xF9 SLT PUSH4 0x4D6B6473 PUSH16 0x6C634300081C00330000000000000000 "
        },
        "methodIdentifiers": {
          "AddBlogs(uint256,string,string,string,string,string)": "0f7d5c80",
          "BlogDetails(uint256)": "8773e61f"
        }
      }
    }
  }
}