{
  "_format": "hh-sol-artifact-1",
  "contractName": "Blogs",
  "sourceName": "contracts/Blogs.sol",
  "abi": [
    {
      "inputs": [
        {
          "internalType": "uint256",
          "name": "_id",
          "type": "uint256"
        },
        {
          "internalType": "string",
          "name": "_BlogName",
          "type": "string"
        },
        {
          "internalType": "string",
          "name": "_Cateogry",
          "type": "string"
        },
        {
          "internalType": "string",
          "name": "_Location",
          "type": "string"
        },
        {
          "internalType": "string",
          "name": "_Date",
          "type": "string"
        },
        {
          "internalType": "string",
          "name": "_Blog",
          "type": "string"
        }
      ],
      "name": "AddBlogs",
      "outputs": [],
      "stateMutability": "nonpayable",
      "type": "function"
    },
    {
      "inputs": [
        {
          "internalType": "uint256",
          "name": "",
          "type": "uint256"
        }
      ],
      "name": "BlogDetails",
      "outputs": [
        {
          "internalType": "string",
          "name": "BlogName",
          "type": "string"
        },
        {
          "internalType": "string",
          "name": "Cateogry",
          "type": "string"
        },
        {
          "internalType": "string",
          "name": "Location",
          "type": "string"
        },
        {
          "internalType": "string",
          "name": "Date",
          "type": "string"
        },
        {
          "internalType": "string",
          "name": "Blog",
          "type": "string"
        }
      ],
      "stateMutability": "view",
      "type": "function"
    }
  ],
  "bytecode": "0x6080604052348015600f57600080fd5b50610afa8061001f6000396000f3fe608060405234801561001057600080fd5b50600436106100365760003560e01c80630f7d5c801461003b5780638773e61f14610057575b600080fd5b610055600480360381019061005091906105ab565b61008b565b005b610071600480360381019061006c91906106c4565b61013d565b604051610082959493929190610770565b60405180910390f35b6040518060a001604052808681526020018581526020018481526020018381526020018281525060008088815260200190815260200160002060008201518160000190816100d991906109f2565b5060208201518160010190816100ef91906109f2565b50604082015181600201908161010591906109f2565b50606082015181600301908161011b91906109f2565b50608082015181600401908161013191906109f2565b50905050505050505050565b600060205280600052604060002060009150905080600001805461016090610815565b80601f016020809104026020016040519081016040528092919081815260200182805461018c90610815565b80156101d95780601f106101ae576101008083540402835291602001916101d9565b820191906000526020600020905b8154815290600101906020018083116101bc57829003601f168201915b5050505050908060010180546101ee90610815565b80601f016020809104026020016040519081016040528092919081815260200182805461021a90610815565b80156102675780601f1061023c57610100808354040283529160200191610267565b820191906000526020600020905b81548152906001019060200180831161024a57829003601f168201915b50505050509080600201805461027c90610815565b80601f01602080910402602001604051908101604052809291908181526020018280546102a890610815565b80156102f55780601f106102ca576101008083540402835291602001916102f5565b820191906000526020600020905b8154815290600101906020018083116102d857829003601f168201915b50505050509080600301805461030a90610815565b80601f016020809104026020016040519081016040528092919081815260200182805461033690610815565b80156103835780601f1061035857610100808354040283529160200191610383565b820191906000526020600020905b81548152906001019060200180831161036657829003601f168201915b50505050509080600401805461039890610815565b80601f01602080910402602001604051908101604052809291908181526020018280546103c490610815565b80156104115780601f106103e657610100808354040283529160200191610411565b820191906000526020600020905b8154815290600101906020018083116103f457829003601f168201915b5050505050905085565b6000604051905090565b600080fd5b600080fd5b6000819050919050565b6104428161042f565b811461044d57600080fd5b50565b60008135905061045f81610439565b92915050565b600080fd5b600080fd5b6000601f19601f8301169050919050565b7f4e487b7100000000000000000000000000000000000000000000000000000000600052604160045260246000fd5b6104b88261046f565b810181811067ffffffffffffffff821117156104d7576104d6610480565b5b80604052505050565b60006104ea61041b565b90506104f682826104af565b919050565b600067ffffffffffffffff82111561051657610515610480565b5b61051f8261046f565b9050602081019050919050565b82818337600083830152505050565b600061054e610549846104fb565b6104e0565b90508281526020810184848401111561056a5761056961046a565b5b61057584828561052c565b509392505050565b600082601f83011261059257610591610465565b5b81356105a284826020860161053b565b91505092915050565b60008060008060008060c087890312156105c8576105c7610425565b5b60006105d689828a01610450565b965050602087013567ffffffffffffffff8111156105f7576105f661042a565b5b61060389828a0161057d565b955050604087013567ffffffffffffffff8111156106245761062361042a565b5b61063089828a0161057d565b945050606087013567ffffffffffffffff8111156106515761065061042a565b5b61065d89828a0161057d565b935050608087013567ffffffffffffffff81111561067e5761067d61042a565b5b61068a89828a0161057d565b92505060a087013567ffffffffffffffff8111156106ab576106aa61042a565b5b6106b789828a0161057d565b9150509295509295509295565b6000602082840312156106da576106d9610425565b5b60006106e884828501610450565b91505092915050565b600081519050919050565b600082825260208201905092915050565b60005b8381101561072b578082015181840152602081019050610710565b60008484015250505050565b6000610742826106f1565b61074c81856106fc565b935061075c81856020860161070d565b6107658161046f565b840191505092915050565b600060a082019050818103600083015261078a8188610737565b9050818103602083015261079e8187610737565b905081810360408301526107b28186610737565b905081810360608301526107c68185610737565b905081810360808301526107da8184610737565b90509695505050505050565b7f4e487b7100000000000000000000000000000000000000000000000000000000600052602260045260246000fd5b6000600282049050600182168061082d57607f821691505b6020821081036108405761083f6107e6565b5b50919050565b60008190508160005260206000209050919050565b60006020601f8301049050919050565b600082821b905092915050565b6000600883026108a87fffffffffffffffffffffffffffffffffffffffffffffffffffffffffffffffff8261086b565b6108b2868361086b565b95508019841693508086168417925050509392505050565b6000819050919050565b60006108ef6108ea6108e58461042f565b6108ca565b61042f565b9050919050565b6000819050919050565b610909836108d4565b61091d610915826108f6565b848454610878565b825550505050565b600090565b610932610925565b61093d818484610900565b505050565b5b818110156109615761095660008261092a565b600181019050610943565b5050565b601f8211156109a65761097781610846565b6109808461085b565b8101602085101561098f578190505b6109a361099b8561085b565b830182610942565b50505b505050565b600082821c905092915050565b60006109c9600019846008026109ab565b1980831691505092915050565b60006109e283836109b8565b9150826002028217905092915050565b6109fb826106f1565b67ffffffffffffffff811115610a1457610a13610480565b5b610a1e8254610815565b610a29828285610965565b600060209050601f831160018114610a5c5760008415610a4a578287015190505b610a5485826109d6565b865550610abc565b601f198416610a6a86610846565b60005b82811015610a9257848901518255600182019150602085019450602081019050610a6d565b86831015610aaf5784890151610aab601f8916826109b8565b8355505b6001600288020188555050505b50505050505056fea26469706673582212205cc9530a7390ed05088fc8f598c92b83fa83774c6939d91eef34d8f912634d6b64736f6c634300081c0033",
  "linkReferences": {},
  "deployedLinkReferences": {}
}